:100000000C942A000C94A0000C9447000C94470018
:100010000C9447000C9447000C9447000C94470044
:100020000C9447000C9449000C9447000C94470032
:100030000C9447000C9447000C9447000C94470024
:100040000C9447000C9447000C9447000C94470014
:100050000C94470011241FBECFE5D4E0DEBFCDBF16
:1000600010E0A0E6B0E0ECEEF1E002C005900D92E9
:10007000A436B107D9F720E0A4E6B0E001C01D9294
:10008000AA36B207E1F70E94C0000C94F4000C9469
:1000900000001F920F920FB60F9211245F936F937F
:1000A0007F938F939F93AF93BF93EF93FF93809131
:1000B00066009091670001969093670080936600B8
:1000C000439781F580916800909169008130910596
:1000D00071F4E0916400F0916500E05AFF4F808177
:1000E0008BBB809164009091650001960FC00297D0
:1000F000A9F4E0916400F0916500E05AFF4F80811F
:100100008BBB8091640090916500039664E070E081
:100110000E94CC0090936500809364001092670069
:1001200010926600FF91EF91BF91AF919F918F91D7
:100130007F916F915F910F900FBE0F901F90189558
:100140001F920F920FB60F9211248F939F9399993C
:1001500010C080916800909169008D7F892B19F4FF
:1001600081E090E002C082E090E09093690080938B
:1001700068009F918F910F900FBE0F901F90189560
:1001800081E089BF83BF80E48BBF83E085BF14BA61
:100190008FE08ABB7894FFCF97FB072E16F400946C
:1001A00007D077FD09D00E94E00007FC05D03EF49F
:1001B000909581959F4F0895709561957F4F089513
:1001C000AA1BBB1B51E107C0AA1FBB1FA617B7077D
:1001D00010F0A61BB70B881F991F5A95A9F7809599
:0C01E0009095BC01CD010895F894FFCF6C
:0401EC0005060A09F1
:00000001FF
