:100000000C942A000C9434000C9434000C943400AA
:100010000C9434000C9434000C9434000C94340090
:100020000C9434000C9434000C9434000C94340080
:100030000C9434000C9434000C9434000C94340070
:100040000C9434000C9434000C9434000C94340060
:100050000C94340011241FBECFE5D4E0DEBFCDBF29
:100060000E9436000C9446000C9400008FEF87BB72
:1000700018BA2FE986E891E0215080409040E1F7DE
:1000800000C0000088B3809588BBF3CFF894FFCF01
:00000001FF
