:100000000C942A000C943F000C943F000C943F0089
:100010000C943F000C943F000C943F000C943F0064
:100020000C943F000C943F000C943F000C943F0054
:100030000C943F000C943F000C943F000C943F0044
:100040000C943F000C943F000C943F000C943F0034
:100050000C943F0011241FBECFE5D4E0DEBFCDBF1E
:1000600010E0A0E6B0E0EAE2FBE002C005900D92ED
:10007000A037B107D9F70E9429010C9493050C947D
:100080000000AA9A00C0AA980895CF93C82F6623AB
:1000900011F0A89A01C0A898A998A49AA59AA69A1E
:1000A000A79AAF98AE98AD98AC98C7FDAF9AC6FD29
:1000B000AE9AC5FDAD9AC4FDAC9A0E944100AF98BE
:1000C000AE98AD98AC98C3FDAF9AC2FDAE9AC1FD93
:1000D000AD9AC0FDAC9A0E944100AC9AAD9AAE9A1E
:1000E000AF9ACF910895A898A99AA498A598A69890
:1000F000A798AA9A00C09C9B02C080E101C080E042
:100100009D9980629E9980649F998068AA9800C09A
:10011000AA9A00C09C9981609D9982609E99846092
:100120009F998860AA9808950E94730087FDFCCF6C
:1001300088E090E00197F1F70C947300CF93C82FFB
:100140000E94940060E08C2FCF910C944500CF93D7
:10015000C82F0E94940061E08C2FCF910C94450031
:10016000611102C0805801C080540C949E000E940E
:10017000940090E0089581E00C949E0082E00C943D
:100180009E00CF93C82F0E949400CA3049F4803457
:1001900010F080E001C080E48058CF910C949E0064
:1001A00061E08C2FCF910C944500CF93DF93EC014D
:1001B0008991882319F00E94C100FACFDF91CF9175
:1001C0000895CF93DF93FC018491EF01219688235A
:1001D00021F00E94C100FE01F7CFDF91CF91089579
:1001E0001F93CF93DF93182FA09AA19AA29AA49A53
:1001F000A59AA69AA79A80E09AEF0197F1F7AD9A8F
:10020000AC9A0E94410080E09EE40197F1F70E94C1
:100210004100C0E0D1E0CE010197F1F70E9441001A
:10022000CE010197F1F7AC980E9441002197F1F7B8
:1002300088E20E949E0088E00E949E000E94BB000F
:1002400086E00E949E00812FDF91CF911F910C9438
:100250009E00CF93DF93CDB7DEB760970FB6F894CB
:10026000DEBF0FBECDBF8FEF87BB80EE81BB86EABE
:1002700086B910BE8CE00E94F00080E4D82E90E693
:10028000E92E90E0F92E8E010F5F1F4F0E94BB00F8
:10029000D7B8369A349BFECF349A64B175B180E0FA
:1002A00090E00E941B0223E333E343E050E40E940A
:1002B00073010E94E5017F936F93FF92EF921F936A
:1002C0000F930E94A902C8010E94D50087EA91E617
:1002D0000197F1F700C000000F900F900F900F9062
:1002E0000F900F90D3CF0E9487010C946F020E9451
:1002F000680258F00E94610240F029F45F3F29F043
:100300000C94580251110C94A3020C945E020E94AA
:10031000800268F39923B1F3552391F3951B550B94
:10032000BB27AA2762177307840738F09F5F5F4FC8
:10033000220F331F441FAA1FA9F335D00E2E3AF007
:10034000E0E832D091505040E695001CCAF72BD01F
:10035000FE2F29D0660F771F881FBB1F2617370770
:100360004807AB07B0E809F0BB0B802DBF01FF27A2
:1003700093585F4F3AF09E3F510578F00C94580225
:100380000C94A3025F3FE4F3983ED4F386957795EF
:100390006795B795F7959F5FC9F7880F911D96955B
:1003A000879597F90895E1E0660F771F881FBB1FB7
:1003B000621773078407BA0720F0621B730B840B64
:1003C000BA0BEE1F88F7E09508950E94EC0168943F
:1003D000B1110C94A30208950E94880288F09F57DF
:1003E00098F0B92F9927B751B0F0E1F0660F771F59
:1003F000881F991F1AF0BA95C9F714C0B13091F04F
:100400000E94A202B1E008950C94A202672F782FF7
:100410008827B85F39F0B93FCCF386957795679513
:10042000B395D9F73EF490958095709561957F4F7F
:100430008F4F9F4F0895E89409C097FB3EF4909525
:100440008095709561957F4F8F4F9F4F9923A9F0AD
:10045000F92F96E9BB279395F6958795779567953C
:10046000B795F111F8CFFAF4BB0F11F460FF1BC080
:100470006F5F7F4F8F4F9F4F16C0882311F096E913
:1004800011C0772321F09EE8872F762F05C06623C1
:1004900071F096E8862F70E060E02AF09A95660F7A
:1004A000771F881FDAF7880F9695879597F9089533
:1004B00097F99F6780E870E060E008959FEF80EC17
:1004C000089500240A9416161706180609060895BA
:1004D00000240A9412161306140605060895092E20
:1004E0000394000C11F4882352F0BB0F40F4BF2B8F
:1004F00011F460FF04C06F5F7F4F8F4F9F4F0895CF
:1005000057FD9058440F551F59F05F3F71F04795C4
:10051000880F97FB991F61F09F3F79F087950895A9
:10052000121613061406551FF2CF4695F1DF08C0C8
:10053000161617061806991FF1CF869571056105E5
:1005400008940895E894BB2766277727CB0197F98D
:100550000895AEE0B0E0EFEAF2E00C946A050D8990
:100560001E8986E08C831A8309838FEF9FE79E8321
:100570008D83AE01475E5F4F6F89788DCE01019606
:100580000E94CB02EF81F885E00FF11F10822E96BA
:10059000E4E00C948605ABE0B0E0E1EDF2E00C9411
:1005A0005C056C017B018A01FC0117821682838144
:1005B00081FFCCC1CE0101963C01F6019381F70188
:1005C00093FD859193FF81917F01882309F4BAC13E
:1005D000853239F493FD859193FF81917F018532B6
:1005E00029F4B60190E00E94C204E7CF912C212C9F
:1005F000312CFFE1F315D8F08B3279F038F48032EA
:1006000079F08332A1F4232D20611DC08D3261F079
:10061000803369F4232D216016C0832D8260382E2B
:10062000E32DE4603E2E2AC0F32DF8601DC037FC98
:100630002DC020ED280F2A3040F08E32B9F436FC60
:1006400081C1232D2064322E19C036FE06C08AE0F7
:10065000989E200D1124922E11C0EAE02E9E200DAE
:100660001124222EF32DF0623F2E08C08C3621F487
:10067000832D8068382E02C0883641F4F70193FD3F
:10068000859193FF81917F018111B3CF982F9F7D39
:100690009554933028F40C5F1F4F9FE399830DC04E
:1006A000833631F0833771F0833509F059C021C0AA
:1006B000F801808189830E5F1F4F88248394912CD9
:1006C000530113C02801F2E04F0E511CF801A08025
:1006D000B18036FE03C0692D70E002C06FEF7FEF7E
:1006E000C5010E94B7044C018201F32DFF773F2E14
:1006F00016C0280122E0420E511CF801A080B180F2
:1007000036FE03C0692D70E002C06FEF7FEFC501B8
:100710000E94AC044C01F32DF0683F2E820133FCA3
:100720001BC0822D90E088169906B0F4B60180E2D5
:1007300090E00E94C2042A94F4CFF50137FC859121
:1007400037FE81915F01B60190E00E94C204211042
:100750002A9421E0821A91088114910471F7E8C06B
:10076000843611F0893641F5F80137FE07C0608103
:100770007181828193810C5F1F4F08C060817181FC
:10078000072E000C880B990B0E5F1F4FF32DFF7681
:100790003F2E97FF09C090958095709561957F4F8A
:1007A0008F4F9F4FF0683F2E2AE030E0A3010E9458
:1007B000FE04882E861845C0853731F4232D2F7E00
:1007C000B22E2AE030E025C0932D997FB92E8F36C6
:1007D000C1F018F4883579F0B5C0803719F0883742
:1007E00021F0B0C0E92FE061BE2EB4FE0DC0FB2D9C
:1007F000F460BF2E09C034FE0AC0292F2660B22E35
:1008000006C028E030E005C020E130E002C020E171
:1008100032E0F801B7FE07C0608171818281938167
:100820000C5F1F4F06C06081718180E090E00E5F19
:100830001F4FA3010E94FE04882E8618FB2DFF7710
:100840003F2E36FE0DC0232D2E7FA22E891458F484
:1008500034FE0BC032FC09C0832D8E7EA82E05C04D
:10086000B82CA32C03C0B82C01C0B92CA4FE0FC017
:10087000FE01E80DF11D8081803321F49A2D997ECF
:10088000A92E09C0A2FE06C0B394B39404C08A2D59
:10089000867809F0B394A3FC11C0A0FE06C0B21480
:1008A00088F4280C922C9B180EC0B21460F4B60188
:1008B00080E290E00E94C204B394F7CFB21418F41F
:1008C0002B1802C0982C212CA4FE10C0B60180E386
:1008D00090E00E94C204A2FE17C0A1FC03C088E7FA
:1008E00090E002C088E590E0B6010CC08A2D8678C1
:1008F00059F0A1FE02C08BE201C080E2A7FC8DE2AC
:10090000B60190E00E94C204891438F4B60180E375
:1009100090E00E94C2049A94F7CF8A94F301E80D04
:10092000F11D8081B60190E00E94C2048110F5CFD4
:10093000222009F442CEB60180E290E00E94C20477
:100940002A94F6CFF6018681978102C08FEF9FEF40
:100950002B96E2E10C947805FC0105906150704003
:100960000110D8F7809590958E0F9F1F0895FC0178
:100970006150704001900110D8F7809590958E0FCE
:100980009F1F08950F931F93CF93DF93FB01238144
:1009900021FD03C08FEF9FEF2CC022FF16C04681C0
:1009A0005781248135814217530744F4A081B181D6
:1009B0009D012F5F3F4F318320838C9326813781A8
:1009C0002F5F3F4F3783268314C08B01EC01FB015F
:1009D0000084F185E02D0995892BE1F6D801169662
:1009E0008D919C911797019617969C938E931697CD
:1009F000CE01DF91CF911F910F910895FA01AA279F
:100A0000283051F1203181F1E8946F936E7F6E5F51
:100A10007F4F8F4F9F4FAF4FB1E03ED0B4E03CD0FF
:100A2000670F781F891F9A1FA11D680F791F8A1FE2
:100A3000911DA11D6A0F711D811D911DA11D20D049
:100A400009F468943F912AE0269F11243019305D03
:100A50003193DEF6CF010895462F4770405D4193F4
:100A6000B3E00FD0C9F7F6CF462F4F70405D4A3341
:100A700018F0495D31FD4052419302D0A9F7EACF09
:100A8000B4E0A6959795879577956795BA95C9F738
:100A900000976105710508959B01AC010A2E06942B
:100AA0005795479537952795BA95C9F7620F731FE4
:100AB000841F951FA01D08952F923F924F925F9221
:100AC0006F927F928F929F92AF92BF92CF92DF925E
:100AD000EF92FF920F931F93CF93DF93CDB7DEB7C3
:100AE000CA1BDB0B0FB6F894DEBF0FBECDBF099457
:100AF0002A88398848885F846E847D848C849B84AE
:100B0000AA84B984C884DF80EE80FD800C811B81BB
:100B1000AA81B981CE0FD11D0FB6F894DEBF0FBEEA
:0A0B2000CDBFED010895F894FFCF5A
:100B2A0074656D70206973203D20256420430000A0
:00000001FF
