:100000000C942A000C9434000C9434000C943400AA
:100010000C9434000C9434000C9434000C94340090
:100020000C9434000C9434000C9434000C94340080
:100030000C9434000C9434000C9434000C94340070
:100040000C9434000C9434000C9434000C94340060
:100050000C94340011241FBECFE5D4E0DEBFCDBF29
:100060000E9436000C9448000C9400008FEF8ABB6D
:1000700081E08BBB91E02FE936E881E021503040F0
:100080008040E1F700C000008BB389278BBBF3CF22
:04009000F894FFCF12
:00000001FF
