:100000000C942A000C943F000C943F000C943F0089
:100010000C943F000C943F000C943F000C943F0064
:100020000C943F000C943F000C943F000C943F0054
:100030000C943F000C943F000C943F000C943F0044
:100040000C943F000C943F000C943F000C943F0034
:100050000C943F0011241FBECFE5D4E0DEBFCDBF1E
:1000600010E0A0E6B0E0E0E7F1E002C005900D92FC
:10007000A037B107D9F70E9493000C94B6000C94F6
:10008000000088BB95989698979A8FE39CE9019712
:10009000F1F700C000009798089588BB959A96984C
:1000A000979A8FE39CE90197F1F700C000009798B9
:1000B000089588E30E9441008FE99FE00197F1F7DE
:1000C00000C0000081E00E9441008FE99FE001979D
:1000D000F1F700C0000082E00E9441008FE99FE03C
:1000E0000197F1F700C0000086E00E9441008FE90F
:1000F0009FE00197F1F700C0000080E80E944100F6
:100100008FE99FE00197F1F700C000000895CF93B9
:10011000DF93EC018991882319F00E944D00FACFFA
:10012000DF91CF9108958FEF87BB80EE81BB0E9456
:1001300059008FE39CE90197F1F700C000008CE0C3
:100140000E9441008FE39CE90197F1F700C0000095
:1001500080E690E00E9487009FEF21EE84E09150BE
:1001600020408040E1F700C00000FFCFF894FFCFAF
:100170002020455246414E204B414E414E492000E1
:00000001FF
