:100000000C942A000C9447000C9447000C94470071
:100010000C9447000C9447000C9447000C94470044
:100020000C949E000C9453000C9447000C944700D1
:100030000C9447000C9447000C9447000C94470024
:100040000C9447000C9447000C9447000C94470014
:100050000C94470011241FBECFE5D4E0DEBFCDBF16
:1000600010E0A0E6B0E0E2EBF1E002C005900D92F6
:10007000AA36B107D9F720E0AAE6B0E001C01D9288
:10008000AB36B207E1F70E94AF000C94D7000C9496
:1000900000008A3030F4E82FF0E0E05AFF4F808112
:1000A000089580E008951F920F920FB60F921124C9
:1000B0002F936F937F938F939F93EF93FF9385B3CA
:1000C0008E3F51F48DEF85BB80916A002AE0622F4C
:1000D0000E94BD00622F1AC085B38D3F59F48BEF8B
:1000E00085BB80916A0064E60E94BD008A30C0F43E
:1000F000E82F11C085B38B3F21F487EF85BB8FE3D9
:1001000010C08EEF85BB80916A006AE00E94BD003E
:100110009A3030F4E92FF0E0E05AFF4F808101C0BF
:1001200080E082BBFF91EF919F918F917F916F91C2
:100130002F910F900FBE0F901F9018951F920F9246
:100140000FB60F9211248F9380916A008F5F809376
:100150006A008F910F900FBE0F901F90189585E049
:1001600089BF82E08EBD81E083BF8FEF81BB84BBFE
:1001700078948EEF85BB12BAFFCF87FB082E062638
:1001800087FD819567FD61950E94CB000EF49195E6
:1001900007FC81950895991B79E004C0991F961773
:1001A00008F0961B881F7A95C9F780950895F894F2
:0201B000FFCF7F
:0A01B2003F065B4F666D7D077F6F0F
:00000001FF
