:100000000C9434000C9446000C9446000C9446006A
:100010000C9446000C9446000C9446000C94460048
:100020000C9448000C9446000C9446000C94460036
:100030000C9446000C9446000C9446000C94460028
:100040000C9446000C9446000C9446000C94460018
:100050000C9446006B006D006F007100730075001A
:10006000770079007B007D0011241FBECFE5D4E02E
:10007000DEBFCDBF20E0A0E6B0E001C01D92A236F9
:10008000B207E1F70E948F000C94C8000C940000A6
:100090001F920F920FB60F9211245F936F937F936D
:1000A0008F939F93AF93BF93EF93FF9380916000E3
:1000B0009091610001966AE070E00E949A0090932E
:1000C0006100809360008A309105D0F4FC01E65D08
:1000D000FF4F0C94AE008FE311C086E00FC08BE59C
:1000E0000DC08FE40BC086E609C08DE607C08DE722
:1000F00005C087E003C08FE701C08FE682BB01C067
:1001000012BAFF91EF91BF91AF919F918F917F9123
:100110006F915F910F900FBE0F901F90189584E024
:1001200089BF82E08EBD8FEF81BB84BB789415BA06
:1001300012BAFFCF97FB072E16F4009407D077FD75
:1001400009D00E94B40007FC05D03EF4909581953B
:100150009F4F0895709561957F4F0895EE0FFF1F93
:100160000590F491E02D0994AA1BBB1B51E107C037
:10017000AA1FBB1FA617B70710F0A61BB70B881F37
:10018000991F5A95A9F780959095BC01CD010895C6
:04019000F894FFCF11
:00000001FF
