:100000000C942A000C948D000C9447000C9447002B
:100010000C9447000C9447000C9447000C94470044
:100020000C9447000C9449000C9447000C94470032
:100030000C9447000C9447000C9447000C94470024
:100040000C9447000C9447000C9447000C94470014
:100050000C94470011241FBECFE5D4E0DEBFCDBF16
:1000600010E0A0E6B0E0E6EBF1E002C005900D92F2
:10007000A436B107D9F720E0A4E6B0E001C01D9294
:10008000A936B207E1F70E94A5000C94D9000C94A0
:1000900000001F920F920FB60F9211245F936F937F
:1000A0007F938F939F93AF93BF93EF93FF93809131
:1000B00066009091670001969093670080936600B8
:1000C0004497E9F4809168008823A9F0E0916400E6
:1000D000F0916500E05AFF4F80818BBB80916400F6
:1000E00090916500019664E070E00E94B1009093E9
:1000F0006500809364001092670010926600FF9183
:10010000EF91BF91AF919F918F917F916F915F918F
:100110000F900FBE0F901F9018951F920F920FB661
:100120000F9211248F9399990AC0809168008111D0
:1001300004C081E08093680002C0109268008F9133
:100140000F900FBE0F901F90189581E089BF83BF5D
:1001500080E48BBF83E085BF14BA8FE08ABB7894BC
:10016000FFCF97FB072E16F4009407D077FD09D038
:100170000E94C50007FC05D03EF4909581959F4FE5
:100180000895709561957F4F0895AA1BBB1B51E19F
:1001900007C0AA1FBB1FA617B70710F0A61BB70BF7
:1001A000881F991F5A95A9F780959095BC01CD019C
:0601B0000895F894FFCF52
:0401B60005060A0927
:04000005008000680F
:00000001FF
